{
  "_format": "hh-sol-artifact-1",
  "contractName": "PriceOracle",
  "sourceName": "contracts/PriceOracle.sol",
  "abi": [
    {
      "inputs": [],
      "stateMutability": "nonpayable",
      "type": "constructor"
    },
    {
      "inputs": [
        {
          "internalType": "address",
          "name": "owner",
          "type": "address"
        }
      ],
      "name": "OwnableInvalidOwner",
      "type": "error"
    },
    {
      "inputs": [
        {
          "internalType": "address",
          "name": "account",
          "type": "address"
        }
      ],
      "name": "OwnableUnauthorizedAccount",
      "type": "error"
    },
    {
      "anonymous": false,
      "inputs": [
        {
          "indexed": true,
          "internalType": "address",
          "name": "previousOwner",
          "type": "address"
        },
        {
          "indexed": true,
          "internalType": "address",
          "name": "newOwner",
          "type": "address"
        }
      ],
      "name": "OwnershipTransferred",
      "type": "event"
    },
    {
      "anonymous": false,
      "inputs": [
        {
          "indexed": true,
          "internalType": "address",
          "name": "token",
          "type": "address"
        },
        {
          "indexed": false,
          "internalType": "uint256",
          "name": "price",
          "type": "uint256"
        },
        {
          "indexed": false,
          "internalType": "uint256",
          "name": "timestamp",
          "type": "uint256"
        }
      ],
      "name": "PriceUpdated",
      "type": "event"
    },
    {
      "inputs": [],
      "name": "MAX_PRICE_AGE",
      "outputs": [
        {
          "internalType": "uint256",
          "name": "",
          "type": "uint256"
        }
      ],
      "stateMutability": "view",
      "type": "function"
    },
    {
      "inputs": [],
      "name": "PRECISION",
      "outputs": [
        {
          "internalType": "uint256",
          "name": "",
          "type": "uint256"
        }
      ],
      "stateMutability": "view",
      "type": "function"
    },
    {
      "inputs": [
        {
          "internalType": "address[]",
          "name": "_tokens",
          "type": "address[]"
        }
      ],
      "name": "getMultiplePrices",
      "outputs": [
        {
          "internalType": "uint256[]",
          "name": "",
          "type": "uint256[]"
        }
      ],
      "stateMutability": "view",
      "type": "function"
    },
    {
      "inputs": [
        {
          "internalType": "address",
          "name": "_token",
          "type": "address"
        }
      ],
      "name": "getPrice",
      "outputs": [
        {
          "internalType": "uint256",
          "name": "",
          "type": "uint256"
        }
      ],
      "stateMutability": "view",
      "type": "function"
    },
    {
      "inputs": [
        {
          "internalType": "address",
          "name": "",
          "type": "address"
        }
      ],
      "name": "lastUpdate",
      "outputs": [
        {
          "internalType": "uint256",
          "name": "",
          "type": "uint256"
        }
      ],
      "stateMutability": "view",
      "type": "function"
    },
    {
      "inputs": [],
      "name": "owner",
      "outputs": [
        {
          "internalType": "address",
          "name": "",
          "type": "address"
        }
      ],
      "stateMutability": "view",
      "type": "function"
    },
    {
      "inputs": [
        {
          "internalType": "address",
          "name": "",
          "type": "address"
        }
      ],
      "name": "prices",
      "outputs": [
        {
          "internalType": "uint256",
          "name": "",
          "type": "uint256"
        }
      ],
      "stateMutability": "view",
      "type": "function"
    },
    {
      "inputs": [],
      "name": "renounceOwnership",
      "outputs": [],
      "stateMutability": "nonpayable",
      "type": "function"
    },
    {
      "inputs": [
        {
          "internalType": "address",
          "name": "_token",
          "type": "address"
        },
        {
          "internalType": "uint256",
          "name": "_price",
          "type": "uint256"
        }
      ],
      "name": "setPrice",
      "outputs": [],
      "stateMutability": "nonpayable",
      "type": "function"
    },
    {
      "inputs": [
        {
          "internalType": "address",
          "name": "newOwner",
          "type": "address"
        }
      ],
      "name": "transferOwnership",
      "outputs": [],
      "stateMutability": "nonpayable",
      "type": "function"
    }
  ],
  "bytecode": "0x608060405234801561001057600080fd5b50338061003757604051631e4fbdf760e01b81526000600482015260240160405180910390fd5b610040816100e9565b5073eeeeeeeeeeeeeeeeeeeeeeeeeeeeeeeeeeeeeeee73a0b86991c6218b36c1d19d4a2e9eb0ce3606eb4861007f670de0b6b3a76400006107d0610139565b6001600160a01b038316600090815260016020818152604080842094909455600290529190204290556100bb90670de0b6b3a764000090610139565b6001600160a01b03909116600090815260016020908152604080832093909355600290522042905550610164565b600080546001600160a01b038381166001600160a01b0319831681178455604051919092169283917f8be0079c531659141344cd1fd0a4f28419497f9722a3daafe3b4186f6b6457e09190a35050565b808202811582820484141761015e57634e487b7160e01b600052601160045260246000fd5b92915050565b61067c806101736000396000f3fe608060405234801561001057600080fd5b506004361061009d5760003560e01c8063a1c7ffb311610066578063a1c7ffb314610109578063aaf5eb6814610129578063cb03fb1e14610138578063cfed246b14610158578063f2fde38b1461017857600080fd5b8062e4768b146100a257806341976e09146100b7578063715018a6146100dd5780638da5cb5b146100e55780639d7f7e8614610100575b600080fd5b6100b56100b03660046104d3565b61018b565b005b6100ca6100c53660046104fd565b61023b565b6040519081526020015b60405180910390f35b6100b561030f565b6000546040516001600160a01b0390911681526020016100d4565b6100ca610e1081565b61011c61011736600461051f565b610323565b6040516100d49190610594565b6100ca670de0b6b3a764000081565b6100ca6101463660046104fd565b60026020526000908152604090205481565b6100ca6101663660046104fd565b60016020526000908152604090205481565b6100b56101863660046104fd565b6103fc565b61019361043a565b600081116101d85760405162461bcd60e51b815260206004820152600d60248201526c496e76616c696420707269636560981b60448201526064015b60405180910390fd5b6001600160a01b0382166000818152600160209081526040808320859055600282529182902042908190558251858152918201527fb556fac599c3c70efb9ab1fa725ecace6c81cc48d1455f886607def065f3e0c0910160405180910390a25050565b6001600160a01b0381166000908152600160205260408120546102905760405162461bcd60e51b815260206004820152600d60248201526c141c9a58d9481b9bdd081cd95d609a1b60448201526064016101cf565b6001600160a01b038216600090815260026020526040902054610e10906102b790426105ee565b11156102f35760405162461bcd60e51b815260206004820152600b60248201526a5374616c6520707269636560a81b60448201526064016101cf565b506001600160a01b031660009081526001602052604090205490565b61031761043a565b6103216000610467565b565b606060008267ffffffffffffffff81111561034057610340610601565b604051908082528060200260200182016040528015610369578160200160208202803683370190505b50905060005b838110156103f2576001600086868481811061038d5761038d610617565b90506020020160208101906103a291906104fd565b6001600160a01b03166001600160a01b03168152602001908152602001600020548282815181106103d5576103d5610617565b6020908102919091010152806103ea8161062d565b91505061036f565b5090505b92915050565b61040461043a565b6001600160a01b03811661042e57604051631e4fbdf760e01b8152600060048201526024016101cf565b61043781610467565b50565b6000546001600160a01b031633146103215760405163118cdaa760e01b81523360048201526024016101cf565b600080546001600160a01b038381166001600160a01b0319831681178455604051919092169283917f8be0079c531659141344cd1fd0a4f28419497f9722a3daafe3b4186f6b6457e09190a35050565b80356001600160a01b03811681146104ce57600080fd5b919050565b600080604083850312156104e657600080fd5b6104ef836104b7565b946020939093013593505050565b60006020828403121561050f57600080fd5b610518826104b7565b9392505050565b6000806020838503121561053257600080fd5b823567ffffffffffffffff8082111561054a57600080fd5b818501915085601f83011261055e57600080fd5b81358181111561056d57600080fd5b8660208260051b850101111561058257600080fd5b60209290920196919550909350505050565b6020808252825182820181905260009190848201906040850190845b818110156105cc578351835292840192918401916001016105b0565b50909695505050505050565b634e487b7160e01b600052601160045260246000fd5b818103818111156103f6576103f66105d8565b634e487b7160e01b600052604160045260246000fd5b634e487b7160e01b600052603260045260246000fd5b60006001820161063f5761063f6105d8565b506001019056fea2646970667358221220defa114dd921fc1af227186a03851e3f30f2e16fd5b1ca8c389abf6a8430e31164736f6c63430008140033",
  "linkReferences": {},
  "deployedLinkReferences": {}
}