{
  "_format": "hh-sol-artifact-1",
  "contractName": "LendFlow",
  "sourceName": "contracts/LendFlow.sol",
  "abi": [
    {
      "inputs": [
        {
          "internalType": "address",
          "name": "_priceOracle",
          "type": "address"
        }
      ],
      "stateMutability": "nonpayable",
      "type": "constructor"
    },
    {
      "inputs": [],
      "name": "EnforcedPause",
      "type": "error"
    },
    {
      "inputs": [],
      "name": "ExpectedPause",
      "type": "error"
    },
    {
      "inputs": [
        {
          "internalType": "address",
          "name": "owner",
          "type": "address"
        }
      ],
      "name": "OwnableInvalidOwner",
      "type": "error"
    },
    {
      "inputs": [
        {
          "internalType": "address",
          "name": "account",
          "type": "address"
        }
      ],
      "name": "OwnableUnauthorizedAccount",
      "type": "error"
    },
    {
      "inputs": [],
      "name": "ReentrancyGuardReentrantCall",
      "type": "error"
    },
    {
      "anonymous": false,
      "inputs": [
        {
          "indexed": true,
          "internalType": "address",
          "name": "user",
          "type": "address"
        },
        {
          "indexed": true,
          "internalType": "address",
          "name": "token",
          "type": "address"
        },
        {
          "indexed": false,
          "internalType": "uint256",
          "name": "amount",
          "type": "uint256"
        },
        {
          "indexed": false,
          "internalType": "uint256",
          "name": "timestamp",
          "type": "uint256"
        }
      ],
      "name": "Borrowed",
      "type": "event"
    },
    {
      "anonymous": false,
      "inputs": [
        {
          "indexed": true,
          "internalType": "address",
          "name": "user",
          "type": "address"
        },
        {
          "indexed": true,
          "internalType": "address",
          "name": "token",
          "type": "address"
        },
        {
          "indexed": false,
          "internalType": "uint256",
          "name": "amount",
          "type": "uint256"
        },
        {
          "indexed": false,
          "internalType": "uint256",
          "name": "timestamp",
          "type": "uint256"
        }
      ],
      "name": "Deposited",
      "type": "event"
    },
    {
      "anonymous": false,
      "inputs": [
        {
          "indexed": true,
          "internalType": "address",
          "name": "user",
          "type": "address"
        },
        {
          "indexed": true,
          "internalType": "address",
          "name": "token",
          "type": "address"
        },
        {
          "indexed": false,
          "internalType": "uint256",
          "name": "interest",
          "type": "uint256"
        },
        {
          "indexed": false,
          "internalType": "uint256",
          "name": "timestamp",
          "type": "uint256"
        }
      ],
      "name": "InterestAccrued",
      "type": "event"
    },
    {
      "anonymous": false,
      "inputs": [
        {
          "indexed": true,
          "internalType": "address",
          "name": "user",
          "type": "address"
        },
        {
          "indexed": true,
          "internalType": "address",
          "name": "token",
          "type": "address"
        },
        {
          "indexed": false,
          "internalType": "uint256",
          "name": "amount",
          "type": "uint256"
        },
        {
          "indexed": false,
          "internalType": "uint256",
          "name": "timestamp",
          "type": "uint256"
        }
      ],
      "name": "Liquidated",
      "type": "event"
    },
    {
      "anonymous": false,
      "inputs": [
        {
          "indexed": true,
          "internalType": "address",
          "name": "token",
          "type": "address"
        },
        {
          "indexed": false,
          "internalType": "uint256",
          "name": "collateralFactor",
          "type": "uint256"
        },
        {
          "indexed": false,
          "internalType": "uint256",
          "name": "liquidationThreshold",
          "type": "uint256"
        }
      ],
      "name": "MarketAdded",
      "type": "event"
    },
    {
      "anonymous": false,
      "inputs": [
        {
          "indexed": true,
          "internalType": "address",
          "name": "previousOwner",
          "type": "address"
        },
        {
          "indexed": true,
          "internalType": "address",
          "name": "newOwner",
          "type": "address"
        }
      ],
      "name": "OwnershipTransferred",
      "type": "event"
    },
    {
      "anonymous": false,
      "inputs": [
        {
          "indexed": false,
          "internalType": "address",
          "name": "account",
          "type": "address"
        }
      ],
      "name": "Paused",
      "type": "event"
    },
    {
      "anonymous": false,
      "inputs": [
        {
          "indexed": true,
          "internalType": "address",
          "name": "user",
          "type": "address"
        },
        {
          "indexed": true,
          "internalType": "address",
          "name": "token",
          "type": "address"
        },
        {
          "indexed": false,
          "internalType": "uint256",
          "name": "amount",
          "type": "uint256"
        },
        {
          "indexed": false,
          "internalType": "uint256",
          "name": "timestamp",
          "type": "uint256"
        }
      ],
      "name": "Repaid",
      "type": "event"
    },
    {
      "anonymous": false,
      "inputs": [
        {
          "indexed": false,
          "internalType": "address",
          "name": "account",
          "type": "address"
        }
      ],
      "name": "Unpaused",
      "type": "event"
    },
    {
      "anonymous": false,
      "inputs": [
        {
          "indexed": true,
          "internalType": "address",
          "name": "user",
          "type": "address"
        },
        {
          "indexed": true,
          "internalType": "address",
          "name": "token",
          "type": "address"
        },
        {
          "indexed": false,
          "internalType": "uint256",
          "name": "amount",
          "type": "uint256"
        },
        {
          "indexed": false,
          "internalType": "uint256",
          "name": "timestamp",
          "type": "uint256"
        }
      ],
      "name": "Withdrawn",
      "type": "event"
    },
    {
      "inputs": [],
      "name": "BASIS_POINTS",
      "outputs": [
        {
          "internalType": "uint256",
          "name": "",
          "type": "uint256"
        }
      ],
      "stateMutability": "view",
      "type": "function"
    },
    {
      "inputs": [],
      "name": "LIQUIDATION_BONUS",
      "outputs": [
        {
          "internalType": "uint256",
          "name": "",
          "type": "uint256"
        }
      ],
      "stateMutability": "view",
      "type": "function"
    },
    {
      "inputs": [],
      "name": "MAX_COLLATERAL_FACTOR",
      "outputs": [
        {
          "internalType": "uint256",
          "name": "",
          "type": "uint256"
        }
      ],
      "stateMutability": "view",
      "type": "function"
    },
    {
      "inputs": [],
      "name": "PRECISION",
      "outputs": [
        {
          "internalType": "uint256",
          "name": "",
          "type": "uint256"
        }
      ],
      "stateMutability": "view",
      "type": "function"
    },
    {
      "inputs": [],
      "name": "SECONDS_PER_YEAR",
      "outputs": [
        {
          "internalType": "uint256",
          "name": "",
          "type": "uint256"
        }
      ],
      "stateMutability": "view",
      "type": "function"
    },
    {
      "inputs": [
        {
          "internalType": "address",
          "name": "_token",
          "type": "address"
        },
        {
          "internalType": "uint256",
          "name": "_collateralFactor",
          "type": "uint256"
        },
        {
          "internalType": "uint256",
          "name": "_liquidationThreshold",
          "type": "uint256"
        }
      ],
      "name": "addMarket",
      "outputs": [],
      "stateMutability": "nonpayable",
      "type": "function"
    },
    {
      "inputs": [
        {
          "internalType": "address",
          "name": "_token",
          "type": "address"
        },
        {
          "internalType": "uint256",
          "name": "_amount",
          "type": "uint256"
        }
      ],
      "name": "borrow",
      "outputs": [],
      "stateMutability": "nonpayable",
      "type": "function"
    },
    {
      "inputs": [
        {
          "internalType": "address",
          "name": "_token",
          "type": "address"
        },
        {
          "internalType": "uint256",
          "name": "_amount",
          "type": "uint256"
        }
      ],
      "name": "deposit",
      "outputs": [],
      "stateMutability": "nonpayable",
      "type": "function"
    },
    {
      "inputs": [
        {
          "internalType": "address",
          "name": "_token",
          "type": "address"
        }
      ],
      "name": "emergencyWithdraw",
      "outputs": [],
      "stateMutability": "nonpayable",
      "type": "function"
    },
    {
      "inputs": [
        {
          "internalType": "address",
          "name": "_token",
          "type": "address"
        }
      ],
      "name": "getMarketData",
      "outputs": [
        {
          "internalType": "uint256",
          "name": "totalDeposits",
          "type": "uint256"
        },
        {
          "internalType": "uint256",
          "name": "totalBorrows",
          "type": "uint256"
        },
        {
          "internalType": "uint256",
          "name": "utilizationRate",
          "type": "uint256"
        },
        {
          "internalType": "uint256",
          "name": "depositAPY",
          "type": "uint256"
        },
        {
          "internalType": "uint256",
          "name": "borrowAPY",
          "type": "uint256"
        },
        {
          "internalType": "uint256",
          "name": "collateralFactor",
          "type": "uint256"
        },
        {
          "internalType": "uint256",
          "name": "liquidationThreshold",
          "type": "uint256"
        },
        {
          "internalType": "bool",
          "name": "isActive",
          "type": "bool"
        }
      ],
      "stateMutability": "view",
      "type": "function"
    },
    {
      "inputs": [],
      "name": "getSupportedTokens",
      "outputs": [
        {
          "internalType": "address[]",
          "name": "",
          "type": "address[]"
        }
      ],
      "stateMutability": "view",
      "type": "function"
    },
    {
      "inputs": [
        {
          "internalType": "address",
          "name": "_user",
          "type": "address"
        },
        {
          "internalType": "address",
          "name": "_token",
          "type": "address"
        }
      ],
      "name": "getUserHealthFactor",
      "outputs": [
        {
          "internalType": "uint256",
          "name": "",
          "type": "uint256"
        }
      ],
      "stateMutability": "view",
      "type": "function"
    },
    {
      "inputs": [
        {
          "internalType": "address",
          "name": "_user",
          "type": "address"
        },
        {
          "internalType": "address",
          "name": "_token",
          "type": "address"
        }
      ],
      "name": "getUserPosition",
      "outputs": [
        {
          "internalType": "uint256",
          "name": "depositedAmount",
          "type": "uint256"
        },
        {
          "internalType": "uint256",
          "name": "borrowedAmount",
          "type": "uint256"
        },
        {
          "internalType": "uint256",
          "name": "accumulatedInterest",
          "type": "uint256"
        },
        {
          "internalType": "uint256",
          "name": "totalCollateral",
          "type": "uint256"
        },
        {
          "internalType": "uint256",
          "name": "healthFactor",
          "type": "uint256"
        }
      ],
      "stateMutability": "view",
      "type": "function"
    },
    {
      "inputs": [
        {
          "internalType": "address",
          "name": "_user",
          "type": "address"
        },
        {
          "internalType": "address",
          "name": "_token",
          "type": "address"
        }
      ],
      "name": "liquidate",
      "outputs": [],
      "stateMutability": "nonpayable",
      "type": "function"
    },
    {
      "inputs": [
        {
          "internalType": "address",
          "name": "",
          "type": "address"
        }
      ],
      "name": "markets",
      "outputs": [
        {
          "internalType": "contract IERC20",
          "name": "token",
          "type": "address"
        },
        {
          "internalType": "uint256",
          "name": "totalDeposits",
          "type": "uint256"
        },
        {
          "internalType": "uint256",
          "name": "totalBorrows",
          "type": "uint256"
        },
        {
          "internalType": "uint256",
          "name": "utilizationRate",
          "type": "uint256"
        },
        {
          "internalType": "uint256",
          "name": "depositAPY",
          "type": "uint256"
        },
        {
          "internalType": "uint256",
          "name": "borrowAPY",
          "type": "uint256"
        },
        {
          "internalType": "uint256",
          "name": "collateralFactor",
          "type": "uint256"
        },
        {
          "internalType": "uint256",
          "name": "liquidationThreshold",
          "type": "uint256"
        },
        {
          "internalType": "bool",
          "name": "isActive",
          "type": "bool"
        }
      ],
      "stateMutability": "view",
      "type": "function"
    },
    {
      "inputs": [],
      "name": "owner",
      "outputs": [
        {
          "internalType": "address",
          "name": "",
          "type": "address"
        }
      ],
      "stateMutability": "view",
      "type": "function"
    },
    {
      "inputs": [],
      "name": "pause",
      "outputs": [],
      "stateMutability": "nonpayable",
      "type": "function"
    },
    {
      "inputs": [],
      "name": "paused",
      "outputs": [
        {
          "internalType": "bool",
          "name": "",
          "type": "bool"
        }
      ],
      "stateMutability": "view",
      "type": "function"
    },
    {
      "inputs": [],
      "name": "priceOracle",
      "outputs": [
        {
          "internalType": "contract IPriceOracle",
          "name": "",
          "type": "address"
        }
      ],
      "stateMutability": "view",
      "type": "function"
    },
    {
      "inputs": [],
      "name": "renounceOwnership",
      "outputs": [],
      "stateMutability": "nonpayable",
      "type": "function"
    },
    {
      "inputs": [
        {
          "internalType": "address",
          "name": "_token",
          "type": "address"
        },
        {
          "internalType": "uint256",
          "name": "_amount",
          "type": "uint256"
        }
      ],
      "name": "repay",
      "outputs": [],
      "stateMutability": "nonpayable",
      "type": "function"
    },
    {
      "inputs": [],
      "name": "rewardToken",
      "outputs": [
        {
          "internalType": "contract LendFlowToken",
          "name": "",
          "type": "address"
        }
      ],
      "stateMutability": "view",
      "type": "function"
    },
    {
      "inputs": [
        {
          "internalType": "uint256",
          "name": "",
          "type": "uint256"
        }
      ],
      "name": "supportedTokens",
      "outputs": [
        {
          "internalType": "address",
          "name": "",
          "type": "address"
        }
      ],
      "stateMutability": "view",
      "type": "function"
    },
    {
      "inputs": [
        {
          "internalType": "address",
          "name": "newOwner",
          "type": "address"
        }
      ],
      "name": "transferOwnership",
      "outputs": [],
      "stateMutability": "nonpayable",
      "type": "function"
    },
    {
      "inputs": [],
      "name": "unpause",
      "outputs": [],
      "stateMutability": "nonpayable",
      "type": "function"
    },
    {
      "inputs": [
        {
          "internalType": "address",
          "name": "",
          "type": "address"
        },
        {
          "internalType": "address",
          "name": "",
          "type": "address"
        }
      ],
      "name": "users",
      "outputs": [
        {
          "internalType": "uint256",
          "name": "depositedAmount",
          "type": "uint256"
        },
        {
          "internalType": "uint256",
          "name": "borrowedAmount",
          "type": "uint256"
        },
        {
          "internalType": "uint256",
          "name": "lastUpdateTime",
          "type": "uint256"
        },
        {
          "internalType": "uint256",
          "name": "accumulatedInterest",
          "type": "uint256"
        },
        {
          "internalType": "uint256",
          "name": "totalCollateral",
          "type": "uint256"
        }
      ],
      "stateMutability": "view",
      "type": "function"
    },
    {
      "inputs": [
        {
          "internalType": "address",
          "name": "_token",
          "type": "address"
        },
        {
          "internalType": "uint256",
          "name": "_amount",
          "type": "uint256"
        }
      ],
      "name": "withdraw",
      "outputs": [],
      "stateMutability": "nonpayable",
      "type": "function"
    }
  ],
  "bytecode": "0x60806040523480156200001157600080fd5b5060405162002d5a38038062002d5a8339810160408190526200003491620001c2565b33806200005c57604051631e4fbdf760e01b8152600060048201526024015b60405180910390fd5b620000678162000164565b5060017f9b779b17422d0df92223018b32b4d1fa46e071723d6817e2486d003becc55f00556001600160a01b038116620000e45760405162461bcd60e51b815260206004820152601660248201527f496e76616c6964206f7261636c65206164647265737300000000000000000000604482015260640162000053565b600580546001600160a01b0319166001600160a01b03831617905560405130906200010f90620001b4565b6001600160a01b039091168152602001604051809103906000f0801580156200013c573d6000803e3d6000fd5b50600480546001600160a01b0319166001600160a01b039290921691909117905550620001f4565b600080546001600160a01b038381166001600160a01b0319831681178455604051919092169283917f8be0079c531659141344cd1fd0a4f28419497f9722a3daafe3b4186f6b6457e09190a35050565b610d57806200200383390190565b600060208284031215620001d557600080fd5b81516001600160a01b0381168114620001ed57600080fd5b9392505050565b611dff80620002046000396000f3fe608060405234801561001057600080fd5b50600436106101a95760003560e01c80638da5cb5b116100f9578063c625562611610097578063e6a69ab811610071578063e6a69ab8146104e2578063f2fde38b146104ed578063f3fef3a314610500578063f7c618c11461051357600080fd5b8063c6255626146104b1578063d3c7c2c7146104c4578063e1f1c4a7146104d957600080fd5b806392cbbd15116100d357806392cbbd15146103da578063a30c302d146103ed578063aaf5eb681461048f578063c0ffb8091461049e57600080fd5b80638da5cb5b146103005780638e8f294b1461031157806392a576e6146103c757600080fd5b80634b8a3529116101665780636ff1c9bc116101405780636ff1c9bc146102ca578063715018a6146102dd5780638456cb59146102e557806386b9d81f146102ed57600080fd5b80634b8a35291461022e5780635c975abb146102415780635e80536a1461025e57600080fd5b806322867d78146101ae5780632630c12f146101c35780632d114020146101f35780633574d4c41461020a5780633f4ba83a1461021357806347e7ef241461021b575b600080fd5b6101c16101bc366004611b93565b610526565b005b6005546101d6906001600160a01b031681565b6040516001600160a01b0390911681526020015b60405180910390f35b6101fc611f4081565b6040519081526020016101ea565b6101fc6101f481565b6101c161072c565b6101c1610229366004611b93565b61073e565b6101c161023c366004611b93565b6109b0565b600054600160a01b900460ff1660405190151581526020016101ea565b6102a261026c366004611bbd565b60016020818152600093845260408085209091529183529120805491810154600282015460038301546004909301549192909185565b604080519586526020860194909452928401919091526060830152608082015260a0016101ea565b6101c16102d8366004611bf0565b610c2f565b6101c1610d6d565b6101c1610d7f565b6101c16102fb366004611bbd565b610d8f565b6000546001600160a01b03166101d6565b61037761031f366004611bf0565b60026020819052600091825260409091208054600182015492820154600383015460048401546005850154600686015460078701546008909701546001600160a01b0390961697969495939492939192909160ff1689565b604080516001600160a01b03909a168a5260208a0198909852968801959095526060870193909352608086019190915260a085015260c084015260e08301521515610100820152610120016101ea565b6102a26103d5366004611bbd565b611009565b6101fc6103e8366004611bbd565b61106f565b6104526103fb366004611bf0565b6001600160a01b03166000908152600260208190526040909120600181015491810154600382015460048301546005840154600685015460078601546008909601549697949693959294919390929160ff90911690565b604080519889526020890197909752958701949094526060860192909252608085015260a084015260c0830152151560e0820152610100016101ea565b6101fc670de0b6b3a764000081565b6101c16104ac366004611c0b565b6110b2565b6101d66104bf366004611c3e565b61133b565b6104cc611365565b6040516101ea9190611c57565b6101fc61271081565b6101fc6301e1338081565b6101c16104fb366004611bf0565b6113c7565b6101c161050e366004611b93565b611405565b6004546101d6906001600160a01b031681565b61052e61165a565b600081116105575760405162461bcd60e51b815260040161054e90611ca4565b60405180910390fd5b6001600160a01b038216600081815260026020908152604080832033808552600184528285209585529490925290912090916105939085611676565b600061059f858561177c565b905081600101548111156105f55760405162461bcd60e51b815260206004820152601b60248201527f5265706179696e67206d6f7265207468616e20626f72726f7765640000000000604482015260640161054e565b808260010160008282546106099190611ce6565b92505081905550838360020160008282546106249190611ce6565b909155505082546040516323b872dd60e01b8152336004820152306024820152604481018690526001600160a01b03909116906323b872dd906064016020604051808303816000875af115801561067f573d6000803e3d6000fd5b505050506040513d601f19601f820116820180604052508101906106a39190611cf9565b6106bf5760405162461bcd60e51b815260040161054e90611d1b565b6106c88561180d565b604080518581524260208201526001600160a01b0387169133917fe62a777dbd48d3912f68a1b9445813ee02bc3ac18b97dc129ca462cc77bb641b91015b60405180910390a35050506107286001600080516020611daa83398151915255565b5050565b610734611920565b61073c61194d565b565b61074661165a565b61074e6119a2565b6000811161076e5760405162461bcd60e51b815260040161054e90611ca4565b6001600160a01b0382166000908152600260205260409020600881015460ff166107ce5760405162461bcd60e51b81526020600482015260116024820152704d61726b6574206e6f742061637469766560781b604482015260640161054e565b6107d83384611676565b80546040516323b872dd60e01b8152336004820152306024820152604481018490526001600160a01b03909116906323b872dd906064016020604051808303816000875af115801561082e573d6000803e3d6000fd5b505050506040513d601f19601f820116820180604052508101906108529190611cf9565b61086e5760405162461bcd60e51b815260040161054e90611d1b565b818160010160008282546108829190611d44565b90915550503360009081526001602090815260408083206001600160a01b038716845290915281208054909184918391906108be908490611d44565b909155506108ce9050848461177c565b8160040160008282546108e19190611d44565b909155506108f090508461180d565b60006109008484600401546119cd565b9050801561096e57600480546040516340c10f1960e01b81523392810192909252602482018390526001600160a01b0316906340c10f1990604401600060405180830381600087803b15801561095557600080fd5b505af1158015610969573d6000803e3d6000fd5b505050505b604080518581524260208201526001600160a01b0387169133917ff5681f9d0db1b911ac18ee83d515a1cf1051853a9eae418316a2fdf7dea427c59101610706565b6109b861165a565b6109c06119a2565b600081116109e05760405162461bcd60e51b815260040161054e90611ca4565b6001600160a01b03821660008181526002602081815260408084203385526001808452828620968652959092529092209082015492820154919290918491610a2791611ce6565b1015610a6e5760405162461bcd60e51b8152602060048201526016602482015275496e73756666696369656e74206c697175696469747960501b604482015260640161054e565b610a783385611676565b6000610a84858561177c565b9050600061271084600601548460040154610a9f9190611d57565b610aa99190611d6e565b905080828460010154610abc9190611d44565b1115610b015760405162461bcd60e51b8152602060048201526014602482015273115e18d959591cc8189bdc9c9bddc81b1a5b5a5d60621b604482015260640161054e565b81836001016000828254610b159190611d44565b9250508190555084846002016000828254610b309190611d44565b9091555050835460405163a9059cbb60e01b8152336004820152602481018790526001600160a01b039091169063a9059cbb906044016020604051808303816000875af1158015610b85573d6000803e3d6000fd5b505050506040513d601f19601f82011682018060405250810190610ba99190611cf9565b610bc55760405162461bcd60e51b815260040161054e90611d1b565b610bce8661180d565b604080518681524260208201526001600160a01b0388169133917fc14e9e6b4d98a542b05a0f6b64acd5f4cbdb914be88432d87486b664e97071a791015b60405180910390a3505050506107286001600080516020611daa83398151915255565b610c37611920565b6001600160a01b03818116600090815260026020526040808220805491516370a0823160e01b8152306004820152909391909116906370a0823190602401602060405180830381865afa158015610c92573d6000803e3d6000fd5b505050506040513d601f19601f82011682018060405250810190610cb69190611d90565b82549091506001600160a01b031663a9059cbb610cdb6000546001600160a01b031690565b6040516001600160e01b031960e084901b1681526001600160a01b039091166004820152602481018490526044016020604051808303816000875af1158015610d28573d6000803e3d6000fd5b505050506040513d601f19601f82011682018060405250810190610d4c9190611cf9565b610d685760405162461bcd60e51b815260040161054e90611d1b565b505050565b610d75611920565b61073c60006119f4565b610d87611920565b61073c611a44565b610d9761165a565b6001600160a01b03808216600081815260026020908152604080832094871683526001825280832093835292905220610dd08484611676565b6000610de185858460040154611a87565b9050670de0b6b3a76400008110610e3a5760405162461bcd60e51b815260206004820152601960248201527f506f736974696f6e206e6f74206c6971756964617461626c6500000000000000604482015260640161054e565b60018201546007840154600090610e5361271084611d57565b610e5d9190611d6e565b90506000612710610e706101f484611d57565b610e7a9190611d6e565b90506000610e888284611d44565b8654909150811115610e98575084545b600060018701819055865482918891610eb2908490611ce6565b9091555060009050610ec4898361177c565b905080876004015411610ed8576000610ee8565b808760040154610ee89190611ce6565b876004018190555081886001016000828254610f049190611ce6565b9091555050875460405163a9059cbb60e01b8152336004820152602481018490526001600160a01b039091169063a9059cbb906044016020604051808303816000875af1158015610f59573d6000803e3d6000fd5b505050506040513d601f19601f82011682018060405250810190610f7d9190611cf9565b610f995760405162461bcd60e51b815260040161054e90611d1b565b610fa28961180d565b604080518381524260208201526001600160a01b03808c1692908d16917f1f0c6615429d1cdae0dfa233abf91d3b31cdbdd82c8081389832a61e1072f1ea910160405180910390a350505050505050506107286001600080516020611daa83398151915255565b6001600160a01b0380831660009081526001602081815260408084209486168452939052918120805492810154600382015460048301549394859485948594859491939290919061105b8c8c83611a87565b939c929b5090995097509095509350505050565b6001600160a01b038083166000908152600160209081526040808320938516835292905290812060048101546110a89085908590611a87565b9150505b92915050565b6110ba611920565b6001600160a01b0383166111085760405162461bcd60e51b8152602060048201526015602482015274496e76616c696420746f6b656e206164647265737360581b604482015260640161054e565b611f4082111561115a5760405162461bcd60e51b815260206004820152601a60248201527f436f6c6c61746572616c20666163746f7220746f6f2068696768000000000000604482015260640161054e565b81811161119e5760405162461bcd60e51b8152602060048201526012602482015271496e76616c6964207468726573686f6c647360701b604482015260640161054e565b6001600160a01b03831660009081526002602052604090206008015460ff16156112025760405162461bcd60e51b81526020600482015260156024820152744d61726b657420616c72656164792065786973747360581b604482015260640161054e565b60408051610120810182526001600160a01b0385811680835260006020808501828152858701838152606087018481526080880185815260a0890186815260c08a018d815260e08b018d815260016101008d018181528b8b526002808b528f8c209e518f546001600160a01b031990811691909f16178f5598518e8301559651978d019790975593516003808d0191909155925160048c0155905160058b01555160068a01559051600789015590516008909701805460ff19169715159790971790965585549081018655949091527fc2575a0e9e593c00f959f8c92f12db2869c3395a3b0502d05e2516446f71f85b909301805490921681179091558251858152918201849052917faeb29651ee58d1f8216621256cf5fe5cdf5c1a7650175c620342e0eb03de0f8e910160405180910390a2505050565b6003818154811061134b57600080fd5b6000918252602090912001546001600160a01b0316905081565b606060038054806020026020016040519081016040528092919081815260200182805480156113bd57602002820191906000526020600020905b81546001600160a01b0316815260019091019060200180831161139f575b5050505050905090565b6113cf611920565b6001600160a01b0381166113f957604051631e4fbdf760e01b81526000600482015260240161054e565b611402816119f4565b50565b61140d61165a565b6114156119a2565b600081116114355760405162461bcd60e51b815260040161054e90611ca4565b6001600160a01b03821660008181526002602090815260408083203384526001835281842094845293909152902080548311156114ab5760405162461bcd60e51b8152602060048201526014602482015273496e73756666696369656e742062616c616e636560601b604482015260640161054e565b6114b53385611676565b60006114c1858561177c565b90506000818360040154116114d75760006114e7565b8183600401546114e79190611ce6565b9050670de0b6b3a76400006114fd338884611a87565b10156115435760405162461bcd60e51b81526020600482015260156024820152744865616c746820666163746f7220746f6f206c6f7760581b604482015260640161054e565b848360000160008282546115579190611ce6565b92505081905550848460010160008282546115729190611ce6565b90915550506004838101829055845460405163a9059cbb60e01b81523392810192909252602482018790526001600160a01b03169063a9059cbb906044016020604051808303816000875af11580156115cf573d6000803e3d6000fd5b505050506040513d601f19601f820116820180604052508101906115f39190611cf9565b61160f5760405162461bcd60e51b815260040161054e90611d1b565b6116188661180d565b604080518681524260208201526001600160a01b0388169133917f91fb9d98b786c57d74c099ccd2beca1739e9f6a81fb49001ca465c4b7591bbe29101610c0c565b611662611b1d565b6002600080516020611daa83398151915255565b6001600160a01b03808316600090815260016020908152604080832093851683529281528282206002918290529290912090820154158015906116b95750815415155b156117705760008260020154426116d09190611ce6565b905060006116e46127106301e13380611d57565b6004840154855484916116f691611d57565b6117009190611d57565b61170a9190611d6e565b9050808460030160008282546117209190611d44565b9091555050604080518281524260208201526001600160a01b0380881692908916917f3a2b349bce98c8da1afa0f5410769c54d6649fbf86eaed1eb40788b8bd0c285e910160405180910390a350505b50426002909101555050565b6005546040516341976e0960e01b81526001600160a01b03848116600483015260009283929116906341976e0990602401602060405180830381865afa1580156117ca573d6000803e3d6000fd5b505050506040513d601f19601f820116820180604052508101906117ee9190611d90565b9050670de0b6b3a76400006118038285611d57565b6110a89190611d6e565b6001600160a01b0381166000908152600260205260408120600181015490910361184a576000600382018190556004820181905560059091015550565b806001015461271082600201546118619190611d57565b61186b9190611d6e565b60038201819055611f409081106118ae5780826003015461032061188f9190611d57565b6118999190611d6e565b6118a49060c8611d44565b60058301556118f2565b6118ba81612710611ce6565b8183600301546118ca9190611ce6565b6118d690611388611d57565b6118e09190611d6e565b6118ec906103e8611d44565b60058301555b612710826003015483600501546119099190611d57565b6119139190611d6e565b8260040181905550505050565b6000546001600160a01b0316331461073c5760405163118cdaa760e01b815233600482015260240161054e565b611955611b4d565b6000805460ff60a01b191690557f5db9ee0a495bf2e6ff9c91a7834c1ba4fdd244a5e8aa4e537bd38aeae4b073aa335b6040516001600160a01b03909116815260200160405180910390a1565b600054600160a01b900460ff161561073c5760405163d93c066560e01b815260040160405180910390fd5b6000670de0b6b3a76400006119e3846064611d57565b6119ed9190611d6e565b9392505050565b600080546001600160a01b038381166001600160a01b0319831681178455604051919092169283917f8be0079c531659141344cd1fd0a4f28419497f9722a3daafe3b4186f6b6457e09190a35050565b611a4c6119a2565b6000805460ff60a01b1916600160a01b1790557f62e78cea01bee320cd4e420270b5ea74000d11b0c9f74754ebdbfc544b05a2586119853390565b6001600160a01b03808416600090815260016020818152604080842094871684529381528383206002909152928220908301549192918303611acf57600019925050506119ed565b6000612710826007015486611ae49190611d57565b611aee9190611d6e565b6001840154909150611b08670de0b6b3a764000083611d57565b611b129190611d6e565b979650505050505050565b600080516020611daa8339815191525460020361073c57604051633ee5aeb560e01b815260040160405180910390fd5b600054600160a01b900460ff1661073c57604051638dfc202b60e01b815260040160405180910390fd5b80356001600160a01b0381168114611b8e57600080fd5b919050565b60008060408385031215611ba657600080fd5b611baf83611b77565b946020939093013593505050565b60008060408385031215611bd057600080fd5b611bd983611b77565b9150611be760208401611b77565b90509250929050565b600060208284031215611c0257600080fd5b6119ed82611b77565b600080600060608486031215611c2057600080fd5b611c2984611b77565b95602085013595506040909401359392505050565b600060208284031215611c5057600080fd5b5035919050565b6020808252825182820181905260009190848201906040850190845b81811015611c985783516001600160a01b031683529284019291840191600101611c73565b50909695505050505050565b6020808252601290820152710416d6f756e74206d757374206265203e20360741b604082015260600190565b634e487b7160e01b600052601160045260246000fd5b818103818111156110ac576110ac611cd0565b600060208284031215611d0b57600080fd5b815180151581146119ed57600080fd5b6020808252600f908201526e151c985b9cd9995c8819985a5b1959608a1b604082015260600190565b808201808211156110ac576110ac611cd0565b80820281158282048414176110ac576110ac611cd0565b600082611d8b57634e487b7160e01b600052601260045260246000fd5b500490565b600060208284031215611da257600080fd5b505191905056fe9b779b17422d0df92223018b32b4d1fa46e071723d6817e2486d003becc55f00a2646970667358221220c5159203ace9b39b3bc024e358c26bdcac132dae2a631a1dcc2cd0f7cc36369864736f6c6343000814003360806040523480156200001157600080fd5b5060405162000d5738038062000d578339810160408190526200003491620001a7565b336040518060400160405280600e81526020016d2632b732233637bb902a37b5b2b760911b8152506040518060400160405280600381526020016213119560ea1b81525081600390816200008991906200027e565b5060046200009882826200027e565b5050506001600160a01b038116620000cb57604051631e4fbdf760e01b8152600060048201526024015b60405180910390fd5b620000d68162000155565b506001600160a01b0381166200012f5760405162461bcd60e51b815260206004820152601860248201527f496e76616c69642070726f746f636f6c206164647265737300000000000000006044820152606401620000c2565b600680546001600160a01b0319166001600160a01b03929092169190911790556200034a565b600580546001600160a01b038381166001600160a01b0319831681179093556040519116919082907f8be0079c531659141344cd1fd0a4f28419497f9722a3daafe3b4186f6b6457e090600090a35050565b600060208284031215620001ba57600080fd5b81516001600160a01b0381168114620001d257600080fd5b9392505050565b634e487b7160e01b600052604160045260246000fd5b600181811c908216806200020457607f821691505b6020821081036200022557634e487b7160e01b600052602260045260246000fd5b50919050565b601f8211156200027957600081815260208120601f850160051c81016020861015620002545750805b601f850160051c820191505b81811015620002755782815560010162000260565b5050505b505050565b81516001600160401b038111156200029a576200029a620001d9565b620002b281620002ab8454620001ef565b846200022b565b602080601f831160018114620002ea5760008415620002d15750858301515b600019600386901b1c1916600185901b17855562000275565b600085815260208120601f198616915b828110156200031b57888601518255948401946001909101908401620002fa565b50858210156200033a5787850151600019600388901b60f8161c191681555b5050505050600190811b01905550565b6109fd806200035a6000396000f3fe608060405234801561001057600080fd5b50600436106100f55760003560e01c8063715018a6116100975780639dc29fac116100665780639dc29fac146101f9578063a9059cbb1461020c578063dd62ed3e1461021f578063f2fde38b1461025857600080fd5b8063715018a6146101ad57806384436d3e146101b55780638da5cb5b146101e057806395d89b41146101f157600080fd5b806323b872dd116100d357806323b872dd1461014d578063313ce5671461016057806340c10f191461016f57806370a082311461018457600080fd5b806306fdde03146100fa578063095ea7b31461011857806318160ddd1461013b575b600080fd5b61010261026b565b60405161010f9190610847565b60405180910390f35b61012b6101263660046108b1565b6102fd565b604051901515815260200161010f565b6002545b60405190815260200161010f565b61012b61015b3660046108db565b610317565b6040516012815260200161010f565b61018261017d3660046108b1565b61033b565b005b61013f610192366004610917565b6001600160a01b031660009081526020819052604090205490565b6101826103a1565b6006546101c8906001600160a01b031681565b6040516001600160a01b03909116815260200161010f565b6005546001600160a01b03166101c8565b6101026103b5565b6101826102073660046108b1565b6103c4565b61012b61021a3660046108b1565b610421565b61013f61022d366004610939565b6001600160a01b03918216600090815260016020908152604080832093909416825291909152205490565b610182610266366004610917565b61042f565b60606003805461027a9061096c565b80601f01602080910402602001604051908101604052809291908181526020018280546102a69061096c565b80156102f35780601f106102c8576101008083540402835291602001916102f3565b820191906000526020600020905b8154815290600101906020018083116102d657829003601f168201915b5050505050905090565b60003361030b81858561046d565b60019150505b92915050565b60003361032585828561047f565b6103308585856104fe565b506001949350505050565b6006546001600160a01b031633146103935760405162461bcd60e51b815260206004820152601660248201527513db9b1e481c1c9bdd1bd8dbdb0818d85b881b5a5b9d60521b60448201526064015b60405180910390fd5b61039d828261055d565b5050565b6103a9610593565b6103b360006105c0565b565b60606004805461027a9061096c565b6006546001600160a01b031633146104175760405162461bcd60e51b815260206004820152601660248201527513db9b1e481c1c9bdd1bd8dbdb0818d85b881b5a5b9d60521b604482015260640161038a565b61039d8282610612565b60003361030b8185856104fe565b610437610593565b6001600160a01b03811661046157604051631e4fbdf760e01b81526000600482015260240161038a565b61046a816105c0565b50565b61047a8383836001610648565b505050565b6001600160a01b038381166000908152600160209081526040808320938616835292905220546000198110156104f857818110156104e957604051637dc7a0d960e11b81526001600160a01b0384166004820152602481018290526044810183905260640161038a565b6104f884848484036000610648565b50505050565b6001600160a01b03831661052857604051634b637e8f60e11b81526000600482015260240161038a565b6001600160a01b0382166105525760405163ec442f0560e01b81526000600482015260240161038a565b61047a83838361071d565b6001600160a01b0382166105875760405163ec442f0560e01b81526000600482015260240161038a565b61039d6000838361071d565b6005546001600160a01b031633146103b35760405163118cdaa760e01b815233600482015260240161038a565b600580546001600160a01b038381166001600160a01b0319831681179093556040519116919082907f8be0079c531659141344cd1fd0a4f28419497f9722a3daafe3b4186f6b6457e090600090a35050565b6001600160a01b03821661063c57604051634b637e8f60e11b81526000600482015260240161038a565b61039d8260008361071d565b6001600160a01b0384166106725760405163e602df0560e01b81526000600482015260240161038a565b6001600160a01b03831661069c57604051634a1406b160e11b81526000600482015260240161038a565b6001600160a01b03808516600090815260016020908152604080832093871683529290522082905580156104f857826001600160a01b0316846001600160a01b03167f8c5be1e5ebec7d5bd14f71427d1e84f3dd0314c0f7b2291e5b200ac8c7c3b9258460405161070f91815260200190565b60405180910390a350505050565b6001600160a01b03831661074857806002600082825461073d91906109a6565b909155506107ba9050565b6001600160a01b0383166000908152602081905260409020548181101561079b5760405163391434e360e21b81526001600160a01b0385166004820152602481018290526044810183905260640161038a565b6001600160a01b03841660009081526020819052604090209082900390555b6001600160a01b0382166107d6576002805482900390556107f5565b6001600160a01b03821660009081526020819052604090208054820190555b816001600160a01b0316836001600160a01b03167fddf252ad1be2c89b69c2b068fc378daa952ba7f163c4a11628f55a4df523b3ef8360405161083a91815260200190565b60405180910390a3505050565b600060208083528351808285015260005b8181101561087457858101830151858201604001528201610858565b506000604082860101526040601f19601f8301168501019250505092915050565b80356001600160a01b03811681146108ac57600080fd5b919050565b600080604083850312156108c457600080fd5b6108cd83610895565b946020939093013593505050565b6000806000606084860312156108f057600080fd5b6108f984610895565b925061090760208501610895565b9150604084013590509250925092565b60006020828403121561092957600080fd5b61093282610895565b9392505050565b6000806040838503121561094c57600080fd5b61095583610895565b915061096360208401610895565b90509250929050565b600181811c9082168061098057607f821691505b6020821081036109a057634e487b7160e01b600052602260045260246000fd5b50919050565b8082018082111561031157634e487b7160e01b600052601160045260246000fdfea264697066735822122055711d2e9d86d480a1fd6416405a6a2321f4f75f476a4e1b44c8e8590b31180a64736f6c63430008140033",
  "linkReferences": {},
  "deployedLinkReferences": {}
}